:0400000007EF00F016
:0A00080007822FED04F07BEF04F0F7
:100800000000000E956E939A939C939E6EEC04F0FC
:1008100081EC04F0899A8A7A550E4FEC04F0030EAD
:10082000056E8A0E046E560EE82EFED7042EFCD7F7
:10083000052EFAD7320E4FEC04F0030E056E8A0E29
:10084000046E560EE82EFED7042EFCD7052EFAD7DE
:10085000AB0E4FEC04F00BEF04F007EF00F00600D6
:100860009EA635EF04F037EF04F04DEF04F0F29E52
:100870008CB03DEF04F040EF04F0010E41EF04F0C6
:10088000000EFF0A016E8C500118FE0B01188C6ED1
:1008900087EC04F0066EF28E9E9607921100036EAE
:1008A00003C0C9FF8A7CC7B058EF04F05AEF04F0C8
:1008B00053EF04F08A7E8CB260EF04F063EF04F033
:1008C000010E64EF04F0000EFF0A026E02468C5027
:1008D0000218FD0B02188C6EC7901200949E938034
:1008E0009392929A0F0EC112C79EC79CC68AC69851
:1008F000F00EC6161200066A07900792000101EF7B
:1009000004F0F28EF28C9E969D869F861200C9504E
:020910001200D3
:020000040020DA
:08000000FFFFFFFFFFFFFFFF00
:020000040030CA
:0E000000000C1F1FFF8385FF0FC00FE00F4095
:00000001FF
