:0400000090EF04F089
:100800000057454C434F4D45300041495A415A30FD
:100810000000046E0304D8A410EF04F012EF04F0FB
:1008200018EF04F0045080096DEC04F025EF04F09B
:10083000020E0318D8A41FEF04F021EF04F025EFF7
:1008400004F00450C0096DEC04F0120032EF04F023
:1008500003C0F6FF04C0F7FF0800F55058EC04F0A1
:10086000034A042A03C0F6FF04C0F7FF0800F5504E
:100870000009D8A43EEF04F040EF04F028EF04F0A4
:10088000120082EC04F0010E036E080E046E26ECDA
:1008900004F0020E036E040E09EC04F00A0E036E5F
:1008A000080E046E26EC04F054EF04F000EF00F0A4
:1008B000026E8080030E016E980EE82EFED7012E88
:1008C000FCD7808202C083FF80900D0E016EFC0E6B
:1008D000E82EFED7012EFCD71200026E8092808097
:1008E000030E016E980EE82EFED7012EFCD702C033
:1008F00083FF80900D0E016EFC0EE82EFED7012EB8
:10090000FCD71200000E956E929092923C0E6DEC08
:1009100004F0060E6DEC04F00F0E6DEC04F0120006
:0E092000000EF86E080EF76E000141EF04F0B5
:020000040020DA
:08000000FFFFFFFFFFFFFFFF00
:020000040030CA
:0E000000020C1F1FFF8385FF0FC00FE00F4093
:00000001FF
