:04000000EAEF17F01C
:1008000000252E32665600696E66006E616E00002D
:10081000000E0001816F36C084F037C085F038C00B
:1008200086F039C087F087BF1AEF04F018EF04F0A4
:100830002EEF04F0010E816F84C001F085C002F03C
:1008400086C003F087C004F0A0EC17F001C084F06C
:1008500002C085F003C086F004C087F0000E0001DE
:10086000836F000E826F5BC071F05CC072F08151CB
:10087000D8B43DEF04F03FEF04F053EF04F08151A2
:10088000D8A445EF04F047EF04F04DEF04F0000E5C
:10089000676F2B0E666F51EF04F0000E676F2D0E21
:1008A000666F66C081F084C001F085C002F086C02A
:1008B00003F087C004F05FEC14F001040210D8A428
:1008C00064EF04F066EF04F099EF04F00001815149
:1008D000D8B46DEF04F06FEF04F078EF04F081C04E
:1008E00000F17107D8A07207000E836F010E826FAE
:1008F000000E8225016E010E8321026E070E036E2B
:10090000080E046E80EC17F00001FD0E7127FF0E3B
:10091000722334C011F035C012F0000E136E010EB8
:10092000146E71C015F072C016F00AEC16F005EFE7
:1009300009F084C001F085C002F086C003F087C0D2
:1009400004F05FEC14F001500210D8A4AAEF04F0F8
:10095000ACEF04F0CCEF04F000018151D8B4B3EF58
:1009600004F0B5EF04F0BEEF04F081C000F17107B0
:10097000D8A07207000E836F010E826F000E8225D1
:10098000016E010E8321026E0B0E036E080E046EC3
:1009900080EC17F084EF04F0000E0001886F000E69
:1009A000896F800E8A6F3F0E8B6F000E706F000E86
:1009B0006F6F84C001F085C002F086C003F087C06D
:1009C00004F0000E056E000E066E000E076E000E9F
:1009D000086EB5EC15F0D8B0F0EF04F0F2EF04F0CB
:1009E000D1EF05F0FFEF04F073C088F074C089F018
:1009F00075C08AF076C08BF000016F4B702B88C0F9
:100A00000FF089C010F08AC011F08BC012F0000EF8
:100A1000136E000E146E200E156E410E166E66ECEF
:100A20000BF00FC073F010C074F011C075F012C05D
:100A300076F000017351845D016E74518559026E28
:100A400075518659036E76518759046E47EC16F03E
:100A500004BE36EF05F004500310021009E1020E47
:100A6000015CD8A036EF05F038EF05F0F4EF04F0A4
:100A700073C028F074C029F075C02AF076C02BF03E
:100A800084C02CF085C02DF086C02EF087C02FF0DA
:100A9000DDEC13F0D8A04FEF05F051EF05F0F4EFC7
:100AA00004F000018851845D016E89518559026E00
:100AB0008A518659036E8B518759046E47EC16F0A4
:100AC00004BE70EF05F004500310021007E1020E9F
:100AD000015CD8B06EEF05F070EF05F0B8EF05F0EF
:100AE00088C084F089C085F08AC086F08BC087F00A
:100AF000D1EF05F088C001F089C002F08AC003F090
:100B00008BC004F0000E056E000E066E200E076E00
:100B1000410E086E7BEC0DF001C088F002C089F038
:100B200003C08AF004C08BF000016F07D8A07007E3
:100B30008851845D016E89518559026E8A518659AA
:100B4000036E8B518759046E47EC16F004BEB6EF66
:100B500005F004500310021007E1020E015CD8B04A
:100B6000B4EF05F0B6EF05F0B8EF05F070EF05F063
:100B700084C028F085C029F086C02AF087C02BF0F9
:100B800088C02CF089C02DF08AC02EF08BC02FF0C9
:100B9000DDEC13F0D8A0CFEF05F0D1EF05F07AEF40
:100BA00005F03AC069F069C06AF05EBEDAEF05F0A0
:100BB000DCEF05F0E2EF05F05DC062F05EC063F0CF
:100BC000E7EF05F0000E0001636F060E626F62C072
:100BD0006DF063C06EF000016D4B6E2B660E6A19EE
:100BE000D8A4F5EF05F0F7EF05F017EF06F070BFAA
:100BF000FEEF05F0FCEF05F00AEF06F0000E886F3F
:100C0000000E896F800E8A6F3F0E8B6F000E706F23
:100C1000000E6F6F670E6919D8B411EF06F013EF6D
:100C200006F017EF06F06F516D2770516E23000E1E
:100C3000786F000E776F84C079F085C07AF086C037
:100C40007BF087C07CF088C073F089C074F08AC0E4
:100C500075F08BC076F0A8EF06F079C001F07AC08D
:100C600002F07BC003F07CC004F088C005F089C0AE
:100C700006F08AC007F08BC008F07BEC0DF001C0D5
:100C80001AF002C01BF003C01CF004C01DF0D2EC2F
:100C900010F01AC07DF01BC07EF01CC07FF01DC09C
:100CA00080F07DC001F07EC002F07FC003F080C004
:100CB00004F05AEC13F001C06BF002C06CF079C084
:100CC00028F07AC029F07BC02AF07CC02BF07DC0D0
:100CD00013F07EC014F07FC015F080C016F088C0FD
:100CE0000FF089C010F08AC011F08BC012F066ECD2
:100CF0000BF00FC02CF010C02DF011C02EF012C060
:100D00002FF018EC17F028C079F029C07AF02AC02B
:100D10007BF02BC07CF088C001F089C002F08AC053
:100D200003F08BC004F0000E056E000E066E200E60
:100D3000076E410E086E7BEC0DF001C088F002C01A
:100D400089F003C08AF004C08BF00001774B782B48
:100D50006D51775D7851800A3B6E6E51800A3B5829
:100D6000D8A0B5EF06F0B7EF06F02DEF06F088C07B
:100D70000FF089C010F08AC011F08BC012F0000E85
:100D8000136E000E146EA00E156E400E166E66ECFD
:100D90000BF00FC07DF010C07EF011C07FF012C0CC
:100DA00080F079C028F07AC029F07BC02AF07CC09E
:100DB0002BF07DC02CF07EC02DF07FC02EF080C0C7
:100DC0002FF0DDEC13F0D8B0E8EF06F0EAEF06F014
:100DD000F5EF06F0000E00017D6F000E7E6F000E35
:100DE0007F6F000E806F1EEF07F079C001F07AC0B0
:100DF00002F07BC003F07CC004F07DC005F07EC033
:100E000006F07FC007F080C008F0B5EC15F0D8A060
:100E10000CEF07F00EEF07F01EEF07F000016BB1CB
:100E200014EF07F016EF07F01EEF07F0000E7D6FCE
:100E3000000E7E6F000E7F6F000E806F84C001F089
:100E400085C002F086C003F087C004F07DC005F0C5
:100E50007EC006F07FC007F080C008F006EC09F005
:100E600001C079F002C07AF003C07BF004C07CF0CE
:100E700079C028F07AC029F07BC02AF07CC02BF022
:100E8000000E136E000E146E200E156E410E166EBF
:100E900073C00FF074C010F075C011F076C012F07E
:100EA00066EC0BF00FC02CF010C02DF011C02EF02E
:100EB00012C02FF0DDEC13F0D8A061EF07F063EF64
:100EC00007F08CEF07F000016F4B702B73C00FF031
:100ED00074C010F075C011F076C012F0000E136EE1
:100EE000000E146E200E156E410E166E66EC0BF0A1
:100EF0000FC073F010C074F011C075F012C076F01E
:100F0000660E00016A19D8A488EF07F08AEF07F08F
:100F10008CEF07F06D4B6E2B73C088F074C089F0B6
:100F200075C08AF076C08BF06FC060F070C061F061
:100F3000000E0001686F000E656F000E646F000EFA
:100F4000786F000E776F8AEF08F079C001F07AC0F1
:100F500002F07BC003F07CC004F088C005F089C0BB
:100F600006F08AC007F08BC008F07BEC0DF001C0E2
:100F70001AF002C01BF003C01CF004C01DF0D2EC3C
:100F800010F01AC07DF01BC07EF01CC07FF01DC0A9
:100F900080F07DC001F07EC002F07FC003F080C011
:100FA00004F05AEC13F002BEE1EF07F0025007E143
:100FB0000A0E015CD8B0DFEF07F0E1EF07F0F1EFC8
:100FC00007F07DC001F07EC002F07FC003F080C05A
:100FD00004F05AEC13F001C06BF002C06CF0F6EFB5
:100FE00007F0000E00016C6F090E6B6F0001685175
:100FF000D8A4FDEF07F0FFEF07F027EF08F061BF7F
:1010000006EF08F004EF08F027EF08F0000E822545
:10101000D96E010E8321DA6E2E0EDF6E824B832B8A
:101020007107D8A07207010E686F27EF08F0000E55
:101030008225D96E010E8321DA6E300EDF6E824B6F
:10104000832B7107D8A072076407D8A06507645185
:101050006511D8A42EEF08F030EF08F017EF08F074
:10106000000E8225D96E010E8321DA6E6B51300F8E
:10107000DF6E824B832B7107D8A0720779C028F0EE
:101080007AC029F07BC02AF07CC02BF07DC013F021
:101090007EC014F07FC015F080C016F088C00FF03D
:1010A00089C010F08AC011F08BC012F066EC0BF012
:1010B0000FC02CF010C02DF011C02EF012C02FF078
:1010C00018EC17F028C079F029C07AF02AC07BF01C
:1010D0002BC07CF088C001F089C002F08AC003F008
:1010E0008BC004F0000E056E000E066E200E076E1B
:1010F000410E086E7BEC0DF001C088F002C089F053
:1011000003C08AF004C08BF000016007D8A061071B
:10111000774B782B6D51775D7851800A3B6E6E511D
:10112000800A3B58D8B097EF08F099EF08F0A7EF86
:1011300008F083BFA5EF08F0835109E14B0E825DF3
:10114000D8A0A5EF08F0A7EF08F0A5EF07F0000E74
:10115000786F4F0E776F000E7725D96E010E7821CC
:10116000DA6E000EDF6E000E3B6E010E3C6E825199
:101170003B5E83513C5A77513B24016E78513C20B1
:10118000026E000E036E010E046E82C005F083C075
:1011900006F0CCEC16F000018251775D826F83512E
:1011A0007859836F8151D8A4D8EF08F0DBEF08F0AD
:1011B000010EDCEF08F0000E776F786B8151D8B428
:1011C000E4EF08F0E6EF08F0F1EF08F08207D8A0AE
:1011D0008307000E8225D96E010E8321DA6E81C04D
:1011E000DFFF7751715F7851725B34C011F035C009
:1011F00012F0000E8225136E010E8321146E71C051
:1012000015F072C016F00AEC16F012000450800BB4
:101210000D6E045004240F6E03AE11EF09F013EFAE
:1012200009F014EF09F00F800F50D8B41AEF09F04D
:101230001CEF09F031EF09F00F28D8A422EF09F0D4
:1012400024EF09F02CEF09F0000E016E000E026E83
:10125000000E036E000E046E038E000E046E39EF56
:1012600009F0000E016E000E026E000E036E000EFD
:10127000046E0850800B0E6E0D500E18D8B443EF5C
:1012800009F045EF09F046EF09F00D8C08500824ED
:101290000E6E07AE4EEF09F050EF09F051EF09F076
:1012A0000E800E50D8B457EF09F059EF09F06EEFE9
:1012B00009F00E28D8A45FEF09F061EF09F069EF9B
:1012C00009F0000E056E000E066E000E076E000E91
:1012D000086E078E000E086E76EF09F0000E056EA0
:1012E000000E066E000E076E000E086E0F500E5CAC
:1012F000D8B07DEF09F07FEF09F0A6EF09F00DAC53
:1013000084EF09F086EF09F088EF09F0800E0D1ADE
:101310000FC010F00EC00FF010C00EF001C010F0A2
:1013200005C001F010C005F002C010F006C002F0C8
:1013300010C006F003C010F007C003F010C007F0A3
:1013400004C010F008C004F010C008F0000E106EC9
:101350000F500EC009F00A6A095E000E0A5A0ABE52
:10136000BBEF09F00A5009E11A0E095CD8A0BBEFE7
:1013700009F0BDEF09F0F4EF09F00150021003107D
:101380000410D8A4C6EF09F0C9EF09F0010ECAEFA6
:1013900009F0000E106E000E016E000E026E000EBF
:1013A000036E000E046E0EC00FF0FDEF09F010A0EA
:1013B000DCEF09F0DEEF09F0E4EF09F0D89010302F
:1013C0000109106EE6EF09F0D890103201A0EBEFA2
:1013D00009F0EDEF09F0EEEF09F0108E043404325D
:1013E0000332023201320F2A0E500F5CD8A0FBEFFD
:1013F00009F0FDEF09F0D7EF09F00DBC02EF0AF09C
:1014000004EF0AF044EF0AF00F50D8A40AEF0AF0F4
:101410000CEF0AF016EF0AF0000E016E000E026EDD
:10142000000E036E000E046E65EF0BF005500126F2
:1014300006500222075003220850042204A023EF82
:101440000AF025EF0AF0D1EF0AF010A02AEF0AF017
:101450002CEF0AF032EF0AF0D89010300109106E2C
:1014600034EF0AF0D890103201A039EF0AF03BEFC8
:101470000AF03CEF0AF0108E0434043203320232D8
:1014800001320F2AD1EF0AF00550015C06500258D4
:10149000075003580450800A096E0850800A095802
:1014A000D8B055EF0AF057EF0AF082EF0AF001507A
:1014B000055C096E025006580A6E035007580B6E01
:1014C000045008580C6EFF0E0924016EFF0E0A200E
:1014D000026EFF0E0B20036EFF0E0C20046E800EBA
:1014E0000D1A106C1050D8A478EF0AF07AEF0AF0B9
:1014F0008AEF0AF0010E0126000E022203220422C6
:101500008AEF0AF00550015E0650025A0750035A4E
:101510000850045A0150021003100410D8A493EF8D
:101520000AF095EF0AF0CAEF0AF01050D8A49BEF2A
:101530000AF09DEF0AF0CAEF0AF0000E016E000EED
:10154000026E000E036E000E046E65EF0BF0D89075
:10155000013602360336043610AEB1EF0AF0B3EFAF
:101560000AF0B4EF0AF0018010A0B9EF0AF0BBEF67
:101570000AF0BFEF0AF0D8801036C1EF0AF0D89019
:1015800010360F50D8B4C7EF0AF0C9EF0AF0CAEF0F
:101590000AF00F0603AECFEF0AF0D1EF0AF0A7EF83
:1015A0000AF0000E0E6E10AED8EF0AF0DAEF0AF075
:1015B000F2EF0AF010C009F07F0E0916D8B4E3EF7D
:1015C0000AF0E5EF0AF0E9EF0AF0010E0E6EF2EF15
:1015D0000AF001A0EEEF0AF0F0EF0AF0F2EF0AF0E5
:1015E000E5EF0AF00E50D8B4F8EF0AF0FAEF0AF07F
:1015F00025EF0BF0010E0126000E02220322042229
:1016000004A005EF0BF007EF0BF025EF0BF001C086
:1016100009F002C00AF003C00BF004C00CF00C3457
:101620000C320B320A32093209C001F00AC002F052
:101630000BC003F00CC004F00F28D8B422EF0BF05D
:1016400024EF0BF025EF0BF00F2A0F28D8B42BEF67
:101650000BF02DEF0BF035EF0BF00F50D8A433EF5C
:101660000BF035EF0BF047EF0BF0000E016E000EA4
:10167000026E000E036E000E046E0F50D8A443EFEE
:101680000BF045EF0BF047EF0BF0000E0D6E0FA0C7
:101690004CEF0BF04EEF0BF051EF0BF0038E52EFCF
:1016A0000BF0039ED8900F30046E0DAE5AEF0BF086
:1016B0005CEF0BF05DEF0BF0048E01C001F002C097
:1016C00002F003C003F004C004F012001250800BBB
:1016D0001B6E12501224216E11AE71EF0BF073EFDE
:1016E0000BF074EF0BF021802150D8B47AEF0BF09F
:1016F0007CEF0BF08FEF0BF02128D8A482EF0BF0DA
:1017000084EF0BF08CEF0BF0000E0F6E000E106EDE
:10171000000E116E000E126E118E97EF0BF0000E80
:101720000F6E000E106E000E116E000E126E16502F
:10173000800B1B1A16501624206E15AEA2EF0BF06C
:10174000A4EF0BF0A5EF0BF020802050D8B4ABEF46
:101750000BF0ADEF0BF0C0EF0BF02028D8A4B3EFE7
:101760000BF0B5EF0BF0BDEF0BF0000E136E000E9B
:10177000146E000E156E000E166E158EC8EF0BF06F
:10178000000E136E000E146E000E156E000E166E17
:101790002050D8B4CEEF0BF0D0EF0BF0D8EF0BF019
:1017A0002150D8A4D6EF0BF0D8EF0BF0E2EF0BF0FE
:1017B000000E0F6E000E106E000E116E000E126EF7
:1017C0007AEF0DF015500F02F3CF26F0F4CF27F08B
:1017D00026501C6E1D6A1E6A1F6A2750226E236ADD
:1017E000246A256A14501002F3CF26F0F4CF27F0B4
:1017F00026501C26000E1D221E221F2227502226A4
:10180000000E23222422252213501102F3CF26F0AA
:10181000F4CF27F026501C26000E1D221E221F2268
:1018200027502226000E2322242225221EC01FF02C
:101830001DC01EF01CC01DF01C6A13501002F3CF17
:1018400026F0F4CF27F026501C2627501D22000E2C
:101850001E22000E1F2214500F02F3CF26F0F4CFE9
:1018600027F026501C2627501D22000E1E22000E97
:101870001F221EC01FF01DC01EF01CC01DF01C6AE0
:1018800013500F02F3CF26F0F4CF27F026501C267A
:1018900027501D22000E1E22000E1F22155010027E
:1018A000F3CF26F0F4CF27F026502226275023220C
:1018B000000E2422000E252214501102F3CF26F030
:1018C000F4CF27F02650222627502322000E242270
:1018D000000E252215501102F3CF26F0F4CF27F089
:1018E0002650176E2750186E196A1A6A19C01AF016
:1018F00018C019F017C018F0176A17502226185090
:101900002322195024221A5025221CC017F01DC072
:1019100018F01EC019F01FC01AF0190E95EF0CF048
:10192000D8901A32193218321732E82E90EF0CF094
:101930001750222618502322195024221A502522EB
:101940001EC01FF01DC01EF01CC01DF01C6A2050E0
:1019500021C017F0186A1726000E1822820E1724CD
:10196000266EFF0E1820276ECBEF0CF0D890223693
:101970002336243625361FAEC0EF0CF0C2EF0CF034
:10198000C3EF0CF02280D8901C361D361E361F3651
:101990002606D8A0270624AED0EF0CF0D2EF0CF02C
:1019A000B6EF0CF0000E206E1FAED9EF0CF0DBEF9F
:1019B0000CF0FFEF0CF0FF0E1C14176EFF0E1D1441
:1019C000186EFF0E1E14196E7F0E1F141A6E17501C
:1019D000181019101A10D8B4F0EF0CF0F2EF0CF048
:1019E000F6EF0CF0010E206EFFEF0CF022A0FBEFE3
:1019F0000CF0FDEF0CF0FFEF0CF0F2EF0CF02050CC
:101A0000D8B405EF0DF007EF0DF02BEF0DF0010E40
:101A10002226000E23222422252225A012EF0DF0DB
:101A200014EF0DF02BEF0DF022C017F023C018F0CB
:101A300024C019F025C01AF01A341A32193218329B
:101A4000173217C022F018C023F019C024F01AC0B2
:101A500025F0264A272A27BE36EF0DF0275008E149
:101A60002628D8A036EF0DF038EF0DF042EF0DF03C
:101A7000000E226E000E236E800E246E7F0E256EE9
:101A800070EF0DF027BE4FEF0DF0275006E1260452
:101A9000D8B04DEF0DF04FEF0DF05BEF0DF0000EF5
:101AA000226E000E236E000E246E000E256E000EB8
:101AB0001B6E70EF0DF026C021F0FF0E2216FF0EF8
:101AC00023167F0E2416000E251621A06AEF0DF0B6
:101AD0006CEF0DF06DEF0DF0248ED8902130256E57
:101AE0001B50251222C00FF023C010F024C011F0AB
:101AF00025C012F012000450800B116E0450042413
:101B0000186E03AE86EF0DF088EF0DF089EF0DF043
:101B100018801850D8B48FEF0DF091EF0DF0A6EFAC
:101B20000DF01828D8A497EF0DF099EF0DF0A1EF64
:101B30000DF0000E016E000E026E000E036E000E20
:101B4000046E038E000E046EAEEF0DF0000E016EFB
:101B5000000E026E000E036E000E046E0850800B25
:101B6000111A08500824196E07AEB9EF0DF0BBEF3B
:101B70000DF0BCEF0DF019801950D8B4C2EF0DF084
:101B8000C4EF0DF0D9EF0DF01928D8A4CAEF0DF06D
:101B9000CCEF0DF0D4EF0DF0000E056E000E066ECA
:101BA000000E076E000E086E078E000E086EE1EF45
:101BB0000DF0000E056E000E066E000E076E000E94
:101BC000086E0550061007100810D8A4EAEF0DF0B3
:101BD000ECEF0DF004EF0EF0000E016E000E026E41
:101BE000000E036E000E046E800E03127F0E0412B0
:101BF0001150041201C001F002C002F003C003F052
:101C000004C004F047EF0FF01850D8A40AEF0EF00C
:101C10000CEF0EF016EF0EF0000E016E000E026ECD
:101C2000000E036E000E046E47EF0FF0195018C03F
:101C300009F00A6A095E000E0A5A7F0E0924126E24
:101C4000000E0A20136E01C00DF002C00EF003C09A
:101C50000FF004C010F0000E016E000E026E000EB8
:101C6000036E000E046E000E146E000E156E000E54
:101C7000166E000E176E000E196E77EF0EF01950EB
:101C8000D8B445EF0EF047EF0EF05EEF0EF0D890AF
:101C90000D360E360F361036D89001360236033622
:101CA000043617AE56EF0EF058EF0EF059EF0EF067
:101CB0000180D890143615361636173605500D5C4F
:101CC00006500E5807500F5808501058D8A06BEF08
:101CD0000EF06DEF0EF076EF0EF0178C05500D5EE6
:101CE00006500E5A07500F5A0850105A192A190E4A
:101CF00019647DEF0EF07FEF0EF03FEF0EF00D5008
:101D00000E100F101010D8B488EF0EF08AEF0EF0FE
:101D1000A2EF0EF01480A2EF0EF0D890013602363A
:101D20000336043617AE97EF0EF099EF0EF09AEFE8
:101D30000EF00180D8901436153616361736120676
:101D4000D8A0130603AEA7EF0EF0A9EF0EF08DEFAB
:101D50000EF0000E196E17AEB0EF0EF0B2EF0EF0EF
:101D6000D6EF0EF0FF0E1414096EFF0E15140A6E56
:101D7000FF0E16140B6E7F0E17140C6E09500A100E
:101D80000B100C10D8B4C7EF0EF0C9EF0EF0CDEF6A
:101D90000EF0010E196ED6EF0EF001A0D2EF0EF08C
:101DA000D4EF0EF0D6EF0EF0C9EF0EF01950D8B404
:101DB000DCEF0EF0DEEF0EF002EF0FF0010E012669
:101DC000000E02220322042204A0E9EF0EF0EBEF42
:101DD0000EF002EF0FF001C009F002C00AF003C0DC
:101DE0000BF004C00CF00C340C320B320A32093206
:101DF00009C001F00AC002F00BC003F00CC004F0EF
:101E0000124A132A13BE0DEF0FF0135008E11228E7
:101E1000D8A00DEF0FF00FEF0FF01AEF0FF0000E3C
:101E2000136E1268000E016E000E026E000E036E3D
:101E3000000E046E13BE27EF0FF0135006E11204DC
:101E4000D8B025EF0FF027EF0FF035EF0FF0000EB1
:101E5000136E000E126E000E016E000E026E000E6A
:101E6000036E000E046E000E116E12C018F018A062
:101E70003CEF0FF03EEF0FF041EF0FF0038E42EF1B
:101E80000FF0039ED8901830046EF8EF0DF012009A
:101E90008EC0D9FF8FC0DAFFDECFF6FFDDCFF7FFB0
:101EA0000800F550250AD8A458EF0FF05AEF0FF0AC
:101EB000BDEF10F08EC0D9FF8FC0DAFFDE2A000E12
:101EC000DD22000E5C6E000E5B6E5BC0B8F05D68DC
:101ED0005E688EC0D9FF8FC0DAFFDECFF6FFDDCFA0
:101EE000F7FF0800F5502E0AD8A479EF0FF07BEF2A
:101EF0000FF0E8EF0FF0000E5E6E000E5D6E8EC00C
:101F0000D9FF8FC0DAFFDE2A000EDD228EC0D9FF96
:101F10008FC0DAFFDECFF6FFDDCFF7FF0800F55008
:101F20002A0AD8A496EF0FF098EF0FF0B5EF0FF054
:101F30008EC0D9FF8FC0DAFFDE2A000EDD2290C0EE
:101F4000D9FF91C0DAFFDFCF3DF0020EDE26DFCFF2
:101F50003EF0000EDD223DC0D9FF3EC0DAFFDECFED
:101F60005DF0DDCF5EF0E8EF0FF08EC0D9FF8FC0DF
:101F7000DAFFDECF07F0DDCF08F0B5EC12F007C0D6
:101F80005DF008C05EF0CCEF0FF08EC0D9FF8FC0BF
:101F9000DAFFDE2A000EDD228EC0D9FF8FC0DAFF05
:101FA000DECFF6FFDDCFF7FF0800F5CF3DF0D00E16
:101FB0003D243E6E3F6AFF0E3F223F5009E10A0E6C
:101FC0003E5CD8A0E6EF0FF0E8EF0FF0C5EF0FF0A2
:101FD0008EC0D9FF8FC0DAFFDECF49F0DDCF4AF0E7
:101FE00049C0F6FF4AC0F7FF0800F5CF48F005EFFB
:101FF00010F0494A4A2A1EEF10F06C0E486E1EEF90
:1020000010F0000E486E1EEF10F048503D6E3E6A14
:102010003E50000AD8B40FEF10F001EF10F03D5021
:102020004C0AD8B4F9EF0FF02A0AD8B4FDEF0FF03C
:102030000A0AD8B4F9EF0FF001EF10F049C0F6FF2B
:102040004AC0F7FF0800F550660AD8A42AEF10F03E
:102050002CEF10F0B4EF10F062EF10F090C0D9FF49
:1020600091C0DAFFDFCF3DF0040EDE26DFCF3EF079
:10207000000EDD223DC0D9FF3EC0DAFFDECF40F0CA
:10208000DECF41F0DECF42F0DECF43F077EF10F04D
:1020900090C0D9FF91C0DAFFDFCF3DF0040EDE26FD
:1020A000DFCF3EF0000EDD223DC0D9FF3EC0DAFF9B
:1020B000DECF40F0DECF41F0DECF42F0DECF43F0A6
:1020C00077EF10F048503D6E3E6A3E50000AD8B49B
:1020D0006CEF10F077EF10F03D504C0AD8B448EF99
:1020E00010F0200AD8B42EEF10F077EF10F0010EA8
:1020F00049243D6E000E4A203E6E8EC0D9FF8FC02F
:10210000DAFF3DC0DEFF3EC0DDFF9EEF10F08CC069
:1021100034F08DC035F040C036F041C037F042C0D9
:1021200038F043C039F049C0F6FF4AC0F7FF080055
:10213000F5CF3AF008EC04F0D1EF10F049C0F6FF0B
:102140004AC0F7FF0800F5503D6E3E6A3E50000A57
:10215000D8B4ADEF10F0B4EF10F03D50660AD8B42B
:1021600087EF10F0B4EF10F08EC0D9FF8FC0DAFF08
:10217000DE2A000EDD22D1EF10F08EC0D9FF8FC015
:10218000DAFFDECFF6FFDDCFF7FF0800F550016E76
:10219000026A8CC003F08DC004F050EC15F0B4EF6F
:1021A00010F01200B0C02AF0B1C02BF0B2C02CF079
:1021B000B3C02DF01AC02AF01BC02BF01CC02CF0AD
:1021C0001DC02DF0810E1E6EFF0E1F6E2AC020F066
:1021D0002BC021F02CC022F02DC023F0180EF6EFFA
:1021E00010F0D8902332223221322032E82EF1EF43
:1021F00010F020501E24286E000E1F20296E29BECC
:102200000BEF11F0295009E1170E285CD8A00BEF55
:1022100011F00DEF11F017EF11F01AC01AF01BC0FA
:102220001BF01CC01CF01DC01DF0DAEF11F029BE20
:102230001CEF11F01EEF11F08EEF11F028C01EF010
:10224000FF0E1F6EFF0E206E7F0E216E000E226E9F
:102250001E662DEF11F035EF11F0223422322132BB
:1022600020321F321E2E28EF11F01FC024F020C094
:1022700025F021C026F022C027F024502A141E6E1B
:1022800025502B141F6E26502C14206E27502D1411
:10229000216E1E501F1020102110D8A452EF11F0F3
:1022A00054EF11F056EF11F00DEF11F02AC01EF0AF
:1022B0002BC01FF02CC020F02DC021F0200E66EFA7
:1022C00011F0D890213220321F321E32E82E61EFF9
:1022D00011F01E501F1020102110D8B472EF11F011
:1022E00074EF11F07CEF11F024502A2625502B2298
:1022F00026502C2227502D22241C1E6E251C1F6EBA
:10230000261C206E271C216E1E502A161F502B16CD
:1023100020502C1621502D16D2EF11F02AC01EF09D
:102320002BC01FF02CC020F02DC021F0200E9EEFFE
:1023300011F0D890213220321F321E32E82E99EF50
:1023400011F01E501F1020102110D8A4AAEF11F078
:10235000ACEF11F0B6EF11F0000E2A6E000E2B6EEE
:10236000000E2C6E000E2D6ED2EF11F0D8902A3494
:102370001E6E2B341F6E2C34206E2D34216E1E5099
:102380001F1020102110D8B4C8EF11F0CAEF11F0BF
:10239000D2EF11F0000E2A6E000E2B6E800E2C6E06
:1023A000BF0E2D6E2AC01AF02BC01BF02CC01CF0E3
:1023B0002DC01DF01200096E0950D8B4E2EF11F0E3
:1023C000E4EF11F006EF12F004BEEBEF11F0E9EFCD
:1023D00011F006EF12F001C005F002C006F003C0D4
:1023E00007F004C008F0051E061E071E081E052A79
:1023F000000E06220722082205C00BF006C00CF0D2
:1024000007C00DF008C00EF00EEF12F001C00BF087
:1024100002C00CF003C00DF004C00EF00150021019
:1024200003100410D8A417EF12F019EF12F023EFE5
:1024300012F0000E016E000E026E000E036E000E12
:10244000046EB4EF12F0960E0A6E2DEF12F00A2A07
:10245000D8900E320D320C320B32000E0B14056E7A
:10246000000E0C14066E000E0D14076EFE0E0E14F8
:10247000086E0550061007100810D8A442EF12F09D
:1024800044EF12F027EF12F052EF12F00A2A010E79
:102490000B26000E0C220D220E22D8900E320D3289
:1024A0000C320B32000E0B14056E000E0C14066E6F
:1024B000000E0D14076EFF0E0E14086E0550061068
:1024C00007100810D8A467EF12F069EF12F046EF7A
:1024D00012F071EF12F00A06D8900B360C360D365A
:1024E0000E360DBE76EF12F078EF12F080EF12F09C
:1024F000020E0A607EEF12F080EF12F06BEF12F026
:102500000AB085EF12F087EF12F088EF12F00D9EFF
:10251000D8900A320AC005F0066A076A086A05C040
:1025200008F0076A066A056A05500B1206500C127D
:1025300007500D1208500E120950D8B4A2EF12F035
:10254000A4EF12F0ACEF12F004BEABEF12F0A9EF63
:1025500012F0ACEF12F00E8E0BC001F00CC002F0C6
:102560000DC003F00EC004F01200000E0F6E000E3E
:102570000E6E000E0D6E000E0C6EC1EF12F0074ACB
:10258000082A07C0F6FF08C0F7FF0800F550200A28
:10259000D8B4CDEF12F0CFEF12F0BFEF12F007C0BA
:1025A000F6FF08C0F7FF0800F5CF09F0F70E092481
:1025B0000A6E0B6AFF0E0B220B5009E1050E0A5C36
:1025C000D8A0E5EF12F0E7EF12F0BFEF12F0F1EF55
:1025D00012F0000E0D6E010E0C6E074A082A26EF4F
:1025E00013F007C0F6FF08C0F7FF0800F550096EAA
:1025F0000A6A0A50000AD8B400EF13F026EF13F06D
:1026000009502B0AD8B4EDEF12F0060AD8B4E9EF5E
:1026100012F026EF13F00EC001F00FC002F0000E12
:10262000046E0A0E036E29EC18F007C0F6FF08C00E
:10263000F7FF0800F550015E000E025A300E01242B
:102640000E6E000E02200F6EEDEF12F007C0F6FFC7
:1026500008C0F7FF0800F5CF09F0D00E09240A6E74
:102660000B6AFF0E0B220B5009E10A0E0A5CD8A080
:102670003CEF13F03EEF13F00BEF13F00C500D1086
:10268000D8A445EF13F047EF13F055EF13F00EC049
:1026900009F00FC00AF0091E0A1E094A0A2A09C0D9
:1026A00007F00AC008F059EF13F00EC007F00FC092
:1026B00008F01200033404340A6E0A50D8A463EF01
:1026C00013F065EF13F06FEF13F0000E016E000EC4
:1026D000026E000E036E000E046EDCEF13F001C0FC
:1026E00005F002C006F003C007F004C008F0200E99
:1026F0007FEF13F0D8900832073206320532E82E09
:102700007AEF13F00550096E038EFF0E0116FF0ECF
:102710000216FF0E0316000E0416960E0A5E0ABE7F
:1027200096EF13F094EF13F0ACEF13F00A50800A19
:10273000970FD8B09EEF13F0A0EF13F0A2EF13F0B5
:1027400065EF13F0D89004320332023201320A3EB0
:10275000A2EF13F0C4EF13F01F0E0A64B2EF13F0F0
:10276000B4EF13F0BCEF13F065EF13F0D89001361F
:102770000236033604360A060A50D8A4C2EF13F014
:10278000C4EF13F0B6EF13F00950D8B4CAEF13F04A
:10279000CCEF13F0D4EF13F0041E031E021E016CE5
:1027A000000E02220322042201C001F002C002F046
:1027B00003C003F004C004F01200000E2814306EB1
:1027C000000E2914316E800E2A14326E7F0E2B14E7
:1027D000336E3050311032103310D8A4F2EF13F0B2
:1027E000F4EF13F0FCEF13F0000E286E000E296ECC
:1027F000000E2A6E000E2B6E000E2C14306E000E92
:102800002D14316E800E2E14326E7F0E2F14336E07
:102810003050311032103310D8A411EF14F013EFF0
:1028200014F01BEF14F0000E2C6E000E2D6E000E37
:102830002E6E000E2F6E2BAE20EF14F022EF14F050
:102840002BEF14F0286C291ED8B0292A2A1ED8B0E4
:102850002A2A800E2B562FAE30EF14F032EF14F0F0
:102860003BEF14F02C6C2D1ED8B02D2A2E1ED8B0A4
:102870002E2A800E2F56000E281A000E291A000E3E
:102880002A1A800E2B1A000E2C1A000E2D1A000E7A
:102890002E1A800E2F1A2C50285C2D5029582E509D
:1028A0002A582F502B58D8B058EF14F05AEF14F084
:1028B0005DEF14F0D8905EEF14F0D8801200B4C031
:1028C0000BF0B5C00CF0B6C00DF0B7C00EF001C0F3
:1028D0000BF002C00CF003C00DF004C00EF00BC0F2
:1028E00005F00CC006F00DC007F00EC008F0180E81
:1028F0007FEF14F0D8900832073206320532E82E06
:102900007AEF14F00550096E0A6A09500A10D8A42B
:102910008CEF14F08EEF14F0AEEF14F0D8900B346F
:10292000056E0C34066E0D34076E0E34086E0550BD
:10293000061007100810D8A4A0EF14F0A2EF14F0AE
:10294000A8EF14F0000E026E020E016EDDEF14F01F
:10295000000E026E030E016EDDEF14F009280A105E
:10296000D8A4B5EF14F0B7EF14F0D9EF14F00BC002
:1029700005F00CC006F00DC007F00EC008F0090EFF
:10298000D8900536063607360836E82EC0EF14F024
:102990000550061007100810D8B4D1EF14F0D4EF8A
:1029A00014F0010ED5EF14F0000E016E026ADDEF97
:1029B00014F0000E026E040E016E120093924EECA3
:1029C00018F03CEC18F0000EF4EC16F001C0AEF07C
:1029D00002C0AFF039EF15F0AEC001F0AFC002F0A9
:1029E000036A046A000EDBEC11F001C00FF002C0B4
:1029F00010F003C011F004C012F00A0E136E280E7E
:102A0000146EA00E156E3B0E166E66EC0BF00FC02A
:102A1000AAF010C0ABF011C0ACF012C0ADF0A00E27
:102A20000001986F000E996F010E9A6F080E9B6F50
:102A3000AAC09CF0ABC09DF0ACC09EF0ADC09FF0B2
:102A40007AEC16F0A00E036E000E046EBCEC17F0CC
:102A500081820D0E5A6EFC0EE82EFED75A2EFCD740
:102A60008192010E14EC18F0000E0001AF6F000E01
:102A7000AE6F0001AF5107E10B0EAE5DD8B043EF72
:102A800015F045EF15F0ECEF14F00D0E5A6EFC0E3C
:102A9000E82EFED75A2EFCD7E3EF14F000EF00F03B
:102AA00003500410D8B457EF15F059EF15F062EF4A
:102AB00015F003500410D8A460EF15F062EF15F084
:102AC00067EF15F001505CEC18F0B4EF15F020EE54
:102AD00009F00350D9260450DA22DE50DE10D8B4B3
:102AE00074EF15F076EF15F091EF15F020EE09F088
:102AF0000350D9260450DA2210EE03F00350E126E9
:102B00000450E222DE50E65CE650800A096EDE5098
:102B1000800A0958D8B08FEF15F091EF15F0B4EF97
:102B200015F020EE03F00350D9260450DA22DECF50
:102B300005F0DDCF06F003C0D9FF04C0DAFFDECF19
:102B400007F0DDCF08F005500724D96E06500820A5
:102B5000DA6E01C0DFFF20EE03F00350D9260450E7
:102B6000DA22DE2A000EDD221200000E0114096EA8
:102B7000000E02140A6E800E03140B6E7F0E0414F6
:102B80000C6E09500A100B100C10D8A4CAEF15F0E7
:102B9000CCEF15F0D4EF15F0000E016E000E026EB2
:102BA000000E036E000E046E000E0514096E000E7A
:102BB00006140A6E800E07140B6E7F0E08140C6E3E
:102BC00009500A100B100C10D8A4E9EF15F0EBEF28
:102BD00015F0F3EF15F0000E056E000E066E000EF8
:102BE000076E000E086E055001180FE1065002181E
:102BF0000CE10750031809E108500418D8B403EF9A
:102C000016F005EF16F008EF16F0D89009EF16F061
:102C1000D880120016BE0FEF16F011EF16F017EF66
:102C200016F015C01AF016C01BF01BEF16F0000EC0
:102C30001B6E000E1A6E000E196E000E186E2DEF30
:102C400016F0000E026E200E016E11C003F012C0CD
:102C500004F050EC15F0184A192A1A50185C195053
:102C6000800A176E1B50800A1758D8A03AEF16F04A
:102C70003CEF16F021EF16F013C00AF014C00BF071
:102C800011C00CF012C00DF05EEC17F0120004BE83
:102C900056EF16F004500310021006E10104D8B0FC
:102CA00054EF16F056EF16F071EF16F001C005F074
:102CB00002C006F003C007F004C008F0051E061E9F
:102CC000071E081E052A000E06220722082205C03C
:102CD00001F006C002F007C003F008C004F079EF6D
:102CE00016F001C001F002C002F003C003F004C0FE
:102CF00004F012009C0E4D6E000E4E6E98C04FF008
:102D000099C050F0000E536E000E526E000E596EB8
:102D1000000E586E4F0E0001926F000E936F9AC016
:102D200094F09BC095F04D0E966F000E976FA3EC3C
:102D300016F0525000019825D96E53509921DA6E41
:102D4000000EDF6E120094C04BF095C04CF0B8EF4F
:102D500016F092C08CF093C08DF04B0E00018E6F78
:102D6000000E8F6F96C090F097C091F048EC0FF076
:102D70004BC0F6FF4CC0F7FF0800F5500009D8A47F
:102D8000C4EF16F0C6EF16F0A9EF16F0000E000122
:102D9000936F000E926F120003C009F004C00AF096
:102DA00001C007F002C008F0E6EF16F009C0D9FF35
:102DB0000AC0DAFFDF500B6E094A0A2A07C0D9FFA2
:102DC00008C0DAFF0BC0DFFF074A082A0506D8A0B3
:102DD0000606052806E10628D8A4F1EF16F0F3EF61
:102DE00016F0D6EF16F01200056E05C003F003468C
:102DF0000346C2500318C30B0318C26EC280C282BE
:102E0000060EE82EFED700D0C2B209EF17F00BEF86
:102E100017F004EF17F0C290C350C4CF03F0046A58
:102E200003C004F0036A0310016E0450026E120026
:102E3000000E2C1A000E2D1A000E2E1A800E2F1ABC
:102E400028C001F029C002F02AC003F02BC004F012
:102E50002CC005F02DC006F02EC007F02FC008F0E2
:102E600006EC09F001C028F002C029F003C02AF0E6
:102E700004C02BF01200010E056E200E0118021086
:102E8000D8B445EF17F047EF17F05AEF17F0F70EE9
:102E90000124036EFF0E0220046E045009E1050EAA
:102EA000035CD8A056EF17F058EF17F05AEF17F061
:102EB000000E056E05C001F0026A1200000E106ED1
:102EC000000E0F6E6FEF17F00EC001F0026A0CC01B
:102ED00003F00DC004F050EC15F00F4A102A0F500B
:102EE0000A24D96E10500B20DA6EDF500E6E0E5091
:102EF000D8A47DEF17F07FEF17F064EF17F0120002
:102F000003C005F004C006F001C007F002C008F0DD
:102F100005C0F6FF06C0F7FF054A062A07C0D9FF1D
:102F200008C0DAFF074A082A0800F5CFDFFFDF50A4
:102F3000D8A49DEF17F09FEF17F088EF17F012005D
:102F40000150021003100410D8B4A9EF17F0ABEF32
:102F500017F0B3EF17F0000E011A000E021A000E60
:102F6000031A800E041A01C001F002C002F003C06F
:102F700003F004C004F01200C7EF17F003C0D9FF3C
:102F800004C0DAFFDF50FFEC17F0034A042A03C045
:102F9000D9FF04C0DAFFDF50D8A4D1EF17F0D3EF88
:102FA00017F0BEEF17F01200D00E0124036EFF0ED3
:102FB0000220046E04500AE10A0E035CD8A0E3EF7D
:102FC00017F0E6EF17F0010EE7EF17F0000E016EB5
:102FD000026A120001EE00F0500EEE6AE806FDE112
:102FE00000EEB0F0090EEE6AE806FDE15E6A5D6A89
:102FF0005C6A5B6A000EF86E0001DEEF14F0026E90
:1030000081848188030E016E980EE82EFED7012E72
:10301000FCD702C083FF81980D0E016EFC0EE82ED6
:10302000FED7012EFCD71200026E81948188030E18
:10303000016E980EE82EFED7012EFCD702C083FF4A
:1030400081980D0E016EFC0EE82EFED7012EFCD7E6
:10305000120001500302F3CF05F0F4CF06F0015047
:103060000402F350062602500302F350062605C060
:1030700001F006C002F012009280C150F00B0E0960
:10308000C16EC050F80B0109C06EC050C70B1009CB
:10309000C06EC08EC30EC216C2801200000E956EA6
:1030A00093949398060E14EC18F00F0E14EC18F08D
:0A30B0003C0E14EC18F012001200A0
:020000040020DA
:08000000FFFFFFFFFFFFFFFF00
:020000040030CA
:0E000000010C1E1EFF8181FF0FC00FE00F409C
:00000001FF
