:0400000091EF04F088
:100800000057454C434F4D450041495A415A00005D
:10081000046E0304D8A40FEF04F011EF04F017EFF7
:1008200004F0045080096DEC04F024EF04F0020E93
:100830000318D8A41EEF04F020EF04F024EF04F016
:100840000450C0096DEC04F0120031EF04F003C055
:10085000F6FF04C0F7FF0800F55057EC04F0034A18
:10086000042A03C0F6FF04C0F7FF0800F550000992
:10087000D8A43DEF04F03FEF04F027EF04F012009E
:1008800083EC04F0010E036E080E046E25EC04F0F8
:10089000020E036E030E08EC04F0090E036E080E40
:1008A000046E25EC04F053EF04F000EF00F0026E4C
:1008B0008080060E016E300EE82EFED7012EFCD78A
:1008C00000D0808202C083FF80900D0E016EFC0E6E
:1008D000E82EFED7012EFCD71200026E8080060E95
:1008E000016E300EE82EFED7012EFCD700D080928C
:1008F00002C083FF80900D0E016EFC0EE82EFED725
:10090000012EFCD71200000E956E929092923C0E32
:100910006DEC04F00F0E6DEC04F0060E6DEC04F0BF
:100920001200000EF86E080EF76E000140EF04F0A2
:020000040020DA
:08000000FFFFFFFFFFFFFFFF00
:020000040030CA
:0E000000210C1F1FFF8385FF0FC00FE00F4074
:00000001FF
