:0400000049EF04F0D0
:100800000000C280C282C2B208EF04F00AEF04F016
:1008100003EF04F01A0E036EF80EE82EFED7032E37
:10082000FCD700D0C290C350C4CF03F0046A03C009
:1008300004F0036A0310016E0450026E120036ECDD
:1008400004F0000E956E01EC04F001508C6E060E63
:10085000066E130E056EAE0EE82EFED7052EFCD7E3
:10086000062EFAD723EF04F000EF00F09280C30EBB
:10087000C216C150F00B0E09C16EC19AC198C08E4C
:10088000C050C70B1009C06EC050F80B0109C06EF4
:08089000120000011FEF04F04B
:020000040020DA
:08000000FFFFFFFFFFFFFFFF00
:020000040030CA
:0E000000000C1F1FFF8385FF0FC00FE00F4095
:00000001FF
