:04000000C4EF3FF01A
:107F88000001C7EF3FF0959292929586000E026E1F
:107F9800050E016EDAEC3FF08C7283A602D089825E
:107FA80001D08992CAEF3FF000EF00F0000E076E93
:107FB800000E066EE9EF3FF0820E036EDE0EE82E2D
:107FC800FED7032EFCD7064A072A01C003F002C0D9
:107FD80004F0D890033604360350065C0750800A34
:107FE800056E0450800A0558D8A0FDEF3FF0FFEF5A
:087FF8003FF0E0EF3FF0120042
:020000040020DA
:08000000FFFFFFFFFFFFFFFF00
:020000040030CA
:0E000000000E1F1FFF8385FF0FC00FE00F4093
:00000001FF
