:0400000007EF00F016
:0A000800038216ED04F031EF04F05E
:100800000000000E956E29EC04F0500E8C6E060E62
:10081000026E130E016EAE0EE82EFED7012EFCD72F
:10082000022EFAD705EF04F007EF00F00600F2A859
:100830001CEF04F01EEF04F027EF04F0F2A223EF08
:1008400004F025EF04F027EF04F0F2928C1E0392DF
:10085000110093800F0EC112F19EF28EF288F29277
:0C086000120003900392000101EF04F06D
:020000040020DA
:08000000FFFFFFFFFFFFFFFF00
:020000040030CA
:0E000000000C1F1FFF8385FF0FC00FE00F4095
:00000001FF
