:0400000007EF00F016
:0A00080002821EED04F041EF04F047
:100800000000000E956E939A939C32EC04F047EC36
:1008100004F080BA0EEF04F010EF04F009EF04F0DA
:100820000150D8B416EF04F018EF04F009EF04F00B
:1008300001C08CFF09EF04F007EF00F006009EA650
:1008400024EF04F026EF04F030EF04F0F29E8A7AF1
:100850004DEC04F0016E000EC96EC790F28E9E96AC
:1008600002921100949E93809382928A0F0EC1127D
:10087000C79EC79CC68AC698C650F00B0409C66EB0
:100880001200016A02900292000101EF04F0F28E60
:0E089000F28C9E969D869F861200C950120023
:020000040020DA
:08000000FFFFFFFFFFFFFFFF00
:020000040030CA
:0E000000000C1F1FFF8385FF0FC00FE00F4095
:00000001FF
