:0400000046EF3FF098
:107E8C0000015DEF3FF09EAA4EEF3FF050EF3FF048
:107E9C0049EF3FF0AE501200016E9EA858EF3FF034
:107EAC005AEF3FF053EF3FF001C0ADFF1200000E50
:107EBC000E6EC20E0F6E010E106E000E116E8CEC5B
:107ECC003FF049EC3FF0126E120E026E000E036E84
:107EDC0074EC3FF067EF3FF000EF00F07FEF3FF006
:107EEC0002C0D9FF03C0DAFFDF5052EC3FF0024A68
:107EFC00032A02C0D9FF03C0DAFFDF50D8A489EFF0
:107F0C003FF08BEF3FF076EF3FF01200949C948E95
:107F1C00800E016E840E026E1E0E036E000E046E39
:107F2C000EC005F00FC006F010C007F011C008F02D
:107F3C00AEEC3FF00104AF6EAC84B886AC98AB8E5F
:107F4C00AC8AAB889E9A9D8A9F8AD08EF28C120046
:107F5C00000E096E000E0A6E000E0B6E000E0C6EFB
:107F6C000550061007100810D8B4BFEF3FF0C1EF52
:107F7C003FF0F7EF3FF0010E0D6ECBEF3FF0D890D6
:107F8C0005360636073608360D2A08AED0EF3FF018
:107F9C00D2EF3FF0C5EF3FF0D89009360A360B36DA
:107FAC000C360550015C0650025807500358085017
:107FBC000458D8A0E4EF3FF0E6EF3FF0EFEF3FF0CE
:107FCC000550015E0650025A0750035A0850045AD5
:107FDC000980D89008320732063205320D2ED2EFC6
:107FEC003FF009C001F00AC002F00BC003F00CC056
:047FFC0004F012007B
:020000040020DA
:08000000FFFFFFFFFFFFFFFF00
:020000040030CA
:0E000000210C1F1EFF8385FF0FC00FE00F4075
:00000001FF
