:0400000007EF00F016
:0A000800038201ED04F062EF04F042
:10080000000006009EA607EF04F009EF04F040EF99
:1008100004F08A88C698C6BC10EF04F012EF04F00A
:1008200019EF04F0C6AE17EF04F019EF04F01EEF55
:1008300004F08A8AC950C69CC69EC688C7B423EFF6
:1008400004F025EF04F02BEF04F08A8CC9CF8CFF65
:10085000C6883FEF04F0C7A430EF04F032EF04F095
:100860003FEF04F08A8EC950C79001C0C9FFC68807
:10087000C7B03DEF04F03FEF04F038EF04F09E9670
:1008800003921100026E02C0C8FF800EC76E3E0EBA
:10089000C66E010EC56E93809382F28EF28C9E9688
:1008A0009D869F8612009398939A939C939E000E28
:1008B000956E000E8C6E430E42EC04F05EEF04F079
:1008C00007EF00F0016A03900392000153EF04F078
:020000040020DA
:08000000FFFFFFFFFFFFFFFF00
:020000040030CA
:0E000000000C1F1EFF8385FF0FC00FE00F4096
:00000001FF
