:0400000036EF0AF0DD
:100800000057454C434F4D45300020256420636F11
:10081000646500001EC036F01FC037F020C038F0FD
:1008200021C039F022C03AF023C03BF024C03CF094
:1008300025C03DF03DBE1FEF04F022EF04F0010E95
:1008400023EF04F0000E346E356A34503510D8B4FE
:100850002CEF04F02EEF04F03EEF04F03D1E3C1EA2
:100860003B1E3A1E391E381E371E366C000E3722CC
:10087000382239223A223B223C223D22000174BF19
:1008800044EF04F046EF04F047EF04F0759374BFB3
:1008900054EF04F0745106E17305D8B052EF04F040
:1008A00054EF04F05AEF04F0000E316E010E306E7A
:1008B0005EEF04F073C030F074C031F071C032F0FC
:1008C00072C033F034503510D8A469EF04F06BEFE8
:1008D00004F072EF04F075A570EF04F072EF04F00D
:1008E00075EF04F03206D8A03306000E3F6E1F0EDF
:1008F0003E6E000E966FF9EF04F03E06D8A03F065C
:10090000770E3E24D96E000E3F20DA6E36C001F01D
:1009100037C002F038C003F039C004F03AC005F027
:100920003BC006F03CC007F03DC008F00A0E096E5F
:10093000000E0A6E000E0B6E000E0C6E000E0D6E99
:10094000000E0E6E000E0F6E000E106E19EC07F00A
:1009500001C026F002C027F003C028F004C029F02F
:1009600005C02AF006C02BF007C02CF008C02DF0FF
:1009700026C013F028C014F07CEC09F01350300F9F
:10098000DF6E3006D8A031063206D8A0330636C056
:1009900001F037C002F038C003F039C004F03AC0AB
:1009A00005F03BC006F03CC007F03DC008F00A0E61
:1009B000096E000E0A6E000E0B6E000E0C6E000E1D
:1009C0000D6E000E0E6E000E0F6E000E106E55ECCA
:1009D00006F001C036F002C037F003C038F004C0A2
:1009E00039F005C03AF006C03BF007C03CF008C043
:1009F0003DF03FBE04EF05F03F5008E13E04D8A0B3
:100A000004EF05F006EF05F037EF05F0365037102C
:100A1000381039103A103B103C103D10D8A413EF99
:100A200005F015EF05F07DEF04F031BE22EF05F083
:100A3000315006E13004D8B020EF05F022EF05F088
:100A40007DEF04F033BE2DEF05F0335008E13204A2
:100A5000D8A02DEF05F02FEF05F037EF05F00001DE
:100A600075B335EF05F037EF05F07DEF04F0345046
:100A70003510D8A43EEF05F040EF05F048EF05F043
:100A8000000175A546EF05F048EF05F066EF05F0AB
:100A90003E06D8A03F0634503510D8A452EF05F0DA
:100AA00054EF05F05AEF05F0000E2F6E2B0E2E6E50
:100AB0005EEF05F0000E2F6E2D0E2E6E770E3E248B
:100AC000D96E000E3F20DA6E2EC0DFFF1CC011F081
:100AD0001DC012F0770E3E24136E000E3F20146EE0
:100AE00032C015F033C016F030EC08F011C01CF025
:100AF00012C01DF0120042C0D9FF43C0DAFFDECFA2
:100B0000F6FFDDCFF7FF0800F550250AD8A48BEFDC
:100B100005F08DEF05F039EF06F042C0D9FF43C074
:100B2000DAFFDE2A000EDD22000E0001726F000ED9
:100B3000716F71C075F072C076F07369746942C0EC
:100B4000D9FF43C0DAFFDECFF6FFDDCFF7FF0800A5
:100B5000F550640AD8B4AFEF05F0B1EF05F0C3EF7C
:100B600005F042C0D9FF43C0DAFFDECFF6FFDDCF8C
:100B7000F7FF0800F550690AD8A4C1EF05F0C3EFEC
:100B800005F003EF06F042C0D9FF43C0DAFFDE2ACA
:100B9000000EDD2244C0D9FF45C0DAFFDFCF46F0AA
:100BA000020EDE26DFCF47F0000EDD2246C0D9FF61
:100BB00047C0DAFFDECF48F0DDCF49F0000E49BE76
:100BC000FF0E4A6E4B6E4C6E4D6E4E6E4F6E40C0B9
:100BD0001CF041C01DF048C01EF049C01FF04AC0C3
:100BE00020F04BC021F04CC022F04DC023F04EC08D
:100BF00024F04FC025F00AEC04F01CC040F01DC0EA
:100C000041F054EF06F042C0D9FF43C0DAFFDECF17
:100C1000F6FFDDCFF7FF0800F550250AD8A413EF43
:100C200006F015EF06F02CEF06F042C0D9FF43C0E6
:100C3000DAFFDE2A000EDD22000E026E250E016EA6
:100C400040C003F041C004F0CBEC07F0000E416E51
:100C5000010E406E54EF06F042C0D9FF43C0DAFFE8
:100C6000DE2A000EDD22000E416E000E406E54EFB3
:100C700006F042C0D9FF43C0DAFFDECFF6FFDDCF7A
:100C8000F7FF0800F550016E026A40C003F041C052
:100C900004F0CBEC07F042C0D9FF43C0DAFFDE2AF4
:100CA000000EDD2226EF06F01200000E126E10BEBE
:100CB0005EEF06F05CEF06F070EF06F0101E0F1E00
:100CC0000E1E0D1E0C1E0B1E0A1E096C000E0A22A3
:100CD0000B220C220D220E220F221022010E126E68
:100CE00008BE77EF06F075EF06F089EF06F0081EF4
:100CF000071E061E051E041E031E021E016C000EAA
:100D00000222032204220522062207220822010EC3
:100D1000121A20EE13F0070EDE6AE806FDE2095013
:100D20000A100B100C100D100E100F101010D8B46C
:100D30009CEF06F09EEF06F0F0EF06F0010E116E4C
:100D4000ACEF06F0D89009360A360B360C360D3665
:100D50000E360F361036112A10AEB1EF06F0B3EF93
:100D600006F0A2EF06F0D890133614361536163674
:100D70001736183619361A360950015C0A500258CF
:100D80000B5003580C5004580D5005580E5006587F
:100D90000F50075810500858D8A0D1EF06F0D3EFE5
:100DA00006F0E4EF06F00950015E0A50025A0B50BB
:100DB000035A0C50045A0D50055A0E50065A0F5043
:100DC000075A1050085A1380D89010320F320E3242
:100DD0000D320C320B320A320932112EB3EF06F00B
:100DE0001250D8B4F6EF06F0F8EF06F008EF07F06F
:100DF0001A1E191E181E171E161E151E141E136C01
:100E0000000E1422152216221722182219221A2245
:100E100013C001F014C002F015C003F016C004F0B6
:100E200017C005F018C006F019C007F01AC008F086
:100E30001200000E126E08BE22EF07F020EF07F03E
:100E400034EF07F0081E071E061E051E041E031EB3
:100E5000021E016C000E0222032204220522062239
:100E600007220822010E126E10BE3BEF07F039EF89
:100E700007F04BEF07F0101E0F1E0E1E0D1E0C1E6E
:100E80000B1E0A1E096C000E0A220B220C220D22D8
:100E90000E220F22102209500A100B100C100D10F8
:100EA0000E100F101010D8B458EF07F05AEF07F0DB
:100EB000A2EF07F0010E116E68EF07F0D890093627
:100EC0000A360B360C360D360E360F361036112A12
:100ED00010AE6DEF07F06FEF07F05EEF07F009500F
:100EE000015C0A5002580B5003580C5004580D5026
:100EF00005580E5006580F50075810500858D8A0E3
:100F000084EF07F086EF07F096EF07F00950015ED7
:100F10000A50025A0B50035A0C50045A0D50055AED
:100F20000E50065A0F50075A1050085AD8901032D7
:100F30000F320E320D320C320B320A320932112EC0
:100F40006FEF07F01250D8B4A8EF07F0AAEF07F040
:100F5000BAEF07F0081E071E061E051E041E031E1C
:100F6000021E016C000E0222032204220522062228
:100F70000722082201C001F002C002F003C003F002
:100F800004C004F005C005F006C006F007C007F075
:100F900008C008F0120003500410D8B4D2EF07F0D4
:100FA000D4EF07F0DDEF07F003500410D8A4DBEF17
:100FB00007F0DDEF07F0E2EF07F0015041EC0AF037
:100FC0002FEF08F020EE04F00350D9260450DA2267
:100FD000DE50DE10D8B4EFEF07F0F1EF07F00CEFC2
:100FE00008F020EE04F00350D9260450DA2210EE67
:100FF00002F00350E1260450E222DE50E65CE650A7
:10100000800A096EDE50800A0958D8B00AEF08F04D
:101010000CEF08F02FEF08F020EE02F00350D92675
:101020000450DA22DECF05F0DDCF06F003C0D9FF91
:1010300004C0DAFFDECF07F0DDCF08F0055007244B
:10104000D96E06500820DA6E01C0DFFF20EE02F0F4
:101050000350D9260450DA22DE2A000EDD221200C7
:10106000000175A136EF08F038EF08F042EF08F004
:1010700013C00AF014C00BF011C00CF012C00DF038
:101080005AEC09F016BE47EF08F049EF08F04FEFB1
:1010900008F015C01AF016C01BF053EF08F0000E50
:1010A0001B6E000E1A6E000E196E000E186E65EFA4
:1010B00008F0000E026E200E016E11C003F012C087
:1010C00004F0CBEC07F0184A192A1A50185C195092
:1010D000800A176E1B50800A1758D8A072EF08F0CC
:1010E00074EF08F059EF08F0000175B17AEF08F0DD
:1010F0007CEF08F086EF08F013C00AF014C00BF084
:1011000011C00CF012C00DF05AEC09F013C001F040
:1011100014C002F0B9EC09F01A500124116E1B50F2
:101120000220126E120020EE9FF00E0EDE6AE8061C
:10113000FDE228EC0AF017EC0AF0010E036E080E2F
:10114000046E02EC09F0020E036E040E9CEC09F032
:10115000D4EC09F001C0AEF002C0AFF09F0E586EA3
:10116000000E596E0A0E5A6E080E5B6EAEC05CF031
:10117000AFC05DF031EC09F09F0E036E000E046EFF
:1011800002EC09F00B0E5F6E260E5E6E5E0EE82E10
:10119000FED75E2EFCD75F2EFAD7A3EF08F000EF44
:1011A00000F052C056F053C057F0000E0001706FAF
:1011B000000E6F6FEFEF08F050C040F051C041F0EB
:1011C000560E426E000E436E54C044F055C045F0BA
:1011D0007BEC05F0405000016F274150702356C052
:1011E000F6FF57C0F7FF0800F5500009D8A4FBEF41
:1011F00008F0FDEF08F0DCEF08F06FC050F070C0B1
:1012000051F0120018EF09F003C0F6FF04C0F7FF19
:10121000F86A070EF76403D00800F55005D0F6CF42
:10122000E1FFF7CFE2FFE750EDEC09F0034A042AB3
:1012300003C0F6FF04C0F7FFF86A070EF76403D097
:101240000800F55005D0F6CFE1FFF7CFE2FFE750F9
:101250000009D8A42EEF09F030EF09F004EF09F0EF
:1012600012005C0E0001976F000E986F58C099F045
:1012700059C09AF0000E9C6F000E9B6F000E9E6F7F
:10128000000E9D6F990E506E000E516E5AC052F0B6
:101290005BC053F0970E546E000E556ED1EC08F003
:1012A00000019B515824D96E9C515920DA6E000ED2
:1012B000DF6E1200000E106E000E0F6E6BEF09F065
:1012C0000EC001F0026A0CC003F00DC004F0CBECBC
:1012D00007F00F4A102A0F500A24D96E10500B2025
:1012E000DA6EDF500E6E0E50D8A479EF09F07BEF66
:1012F00009F060EF09F0120014BE89EF09F01450F4
:1013000006E11304D8B087EF09F089EF09F097EFF1
:1013100009F013C015F014C016F0151E161E154A5C
:10132000162A15C013F016C014F09BEF09F013C075
:1013300013F014C014F01200046E0304D8A4A3EF39
:1013400009F0A5EF09F0ABEF09F00450800902ECB9
:101350000AF0B8EF09F0020E0318D8A4B2EF09F0B2
:10136000B4EF09F0B8EF09F00450C00902EC0AF03C
:10137000120001C003F002C004F0C1EF09F0014AFD
:10138000022A01C0D9FF02C0DAFFDF50D8A4CBEF98
:1013900009F0CDEF09F0BFEF09F00350015C016ED9
:1013A00004500258026E1200C280C282C2B2DBEF49
:1013B00009F0DDEF09F0D6EF09F0000E066E000E21
:1013C000056EC450036EC350056E03C006F0C29094
:1013D00005C001F006C002F01200026E8180030E0B
:1013E000016E980EE82EFED7012EFCD7818202C036
:1013F00083FF81900D0E016EFC0EE82EFED7012EAC
:10140000FCD71200026E81928180030E016E980E4D
:10141000E82EFED7012EFCD702C083FF81900D0E6F
:10142000016EFC0EE82EFED7012EFCD71200928032
:10143000C30EC216C150F00B0E09C16EC050C70BCF
:101440001009C06EC050F80B0409C06EC09E120097
:10145000000E956E939093923C0E02EC0AF0060EED
:1014600002EC0AF00F0E02EC0AF0120000EE60F03F
:10147000370EEE6AE806FDE1000EF86E000193EF0C
:0414800008F012005E
:020000040020DA
:08000000FFFFFFFFFFFFFFFF00
:020000040030CA
:0E000000020C1F1FFF8385FF0FC00FE00F4093
:00000001FF
