:0400000069EF05F0AF
:1008000000202D494E544552464143494E472D0044
:100810002020202D4932432D0000086E08C00EF024
:10082000000EA0EC05F09C0E066ED70EE82EFED74B
:10083000062EFCD700F0030E93EC05F01A0E066EA0
:10084000F80EE82EFED7062EFCD700D0030E93EC50
:1008500005F01A0E066EF80EE82EFED7062EFCD70F
:1008600000D0030E93EC05F01A0E066EF80EE82E7B
:10087000FED7062EFCD700D0020E93EC05F01A0E20
:10088000066EF80EE82EFED7062EFCD700D0280EF6
:1008900093EC05F0020E076E040E066EBA0EE82EFB
:1008A000FED7062EFCD7072EFAD700D00C0E93ECFD
:1008B00005F0020E076E040E066EBA0EE82EFED785
:1008C000062EFCD7072EFAD700D0010E93EC05F0C8
:1008D000020E076E040E066EBA0EE82EFED7062E26
:1008E000FCD7072EFAD700D0060E93EC05F0020EC7
:1008F000076E040E066EBA0EE82EFED7062EFCD743
:10090000072EFAD700D01200ADEC05F04E0E0DEC1C
:1009100004F0010E066E010EE6EC04F0100E066EF9
:10092000080E076E1BEC05F0010E066E020EE6ECDB
:1009300004F0010E066E080E076E1BEC05F0330E78
:100940000D6EBB0E0C6EE00EE82EFED70C2EFCD703
:100950000D2EFAD7B8EC05F0080E0D6E1B0E0C6EBE
:10096000270EE82EFED70C2EFCD70D2EFAD700F05E
:10097000B8EC05F0080E0D6E1B0E0C6E270EE82E5F
:10098000FED70C2EFCD70D2EFAD700F0C0EC05F0E8
:10099000080E0D6E1B0E0C6E270EE82EFED70C2EC9
:1009A000FCD70D2EFAD700F0C0EC05F0080E0D6E46
:1009B0001B0E0C6E270EE82EFED70C2EFCD70D2E2C
:1009C000FAD700F0AAEF04F000EF00F0096E01EF93
:1009D00005F00650BF0F93EC05F01AEF05F0065036
:1009E000930F93EC05F01AEF05F00650D30F93EC3C
:1009F00005F01AEF05F006507F0F93EC05F01AEFA3
:100A000005F00950076E086A0850000AD8B40BEFC9
:100A100005F0FBEF04F00750020AD8B4E9EF04F048
:100A2000010AD8B4EFEF04F0070AD8B4F5EF04F0E8
:100A3000FBEF04F01200000E0B6E000E0A6E31EF99
:100A400005F00A500624086E0B500720096E08C0F6
:100A5000F6FF09C0F7FF0800F55086EC05F00A4ADA
:100A60000B2A0A500624086E0B500720096E08C096
:100A7000F6FF09C0F7FF0800F5500009D8A443EFBE
:100A800005F045EF05F021EF05F01200C7B44BEF7C
:100A900005F04DEF05F046EF05F0C5CF01F01F0E54
:100AA0000116D8A456EF05F058EF05F046EF05F013
:100AB0001200046E0F50041204500409A0EC05F05B
:100AC0000450FB0BA0EC05F0420EE82EFED700D040
:100AD0001200A00EF66E0B0EF76E000EF86E0900F7
:100AE000F5CF10F00F6A000EF86E000184EF04F0ED
:100AF000026E46EC05F002C0C9FF9EA682EF05F02B
:100B000084EF05F07DEF05F09E961200056E010E54
:100B10000F6E0550F00B59EC05F00538F00BF00B9B
:100B200059EC05F01200056E000E0F6E0550F00B2B
:100B300059EC05F00538F00BF00B59EC05F01200FC
:100B4000036ECCEC05F00E5078EC05F0035008096C
:100B500078EC05F0C8EC05F01200280EC66E000E09
:100B6000C56E000EC76E270EC86E9380938212006A
:100B70001C0E93EC05F0350EE82EFED700F01200A7
:100B8000180E93EC05F0350EE82EFED700F012009B
:100B900046EC05F0C584120046EC05F0C580120055
:010BA000084C
:020000040020DA
:08000000FFFFFFFFFFFFFFFF00
:020000040030CA
:0E000000200C191EFF8081FF0FC00FE00F4083
:00000001FF
