:0400000076EF04F0A3
:100800000000036E8A8479EC04F08A8672EC04F0AE
:100810008A8803505FEC04F04CEC04F00009D8B473
:1008200014EF04F016EF04F019EF04F08B8030EFB2
:1008300004F08A8A02505FEC04F04CEC04F00009EA
:10084000D8B425EF04F027EF04F02AEF04F08B82F0
:1008500030EF04F08A8C6EEC04F07CEC04F08A8EAD
:100860001200000E956E000E8C6E939493969398E2
:10087000939A939C939E9490949265EC04F06AEC06
:1008800004F0AB0E026E400E01EC04F0AB0E8C6E69
:1008900048EF04F000EF00F0C5BC51EF04F054EF56
:1008A00004F0010E55EF04F0000E12009EA65BEF5F
:1008B00004F05DEF04F056EF04F09E961200016E16
:1008C00001C0C9FF56EC04F012000F0EC112938054
:1008D00093821200C686130EC86E1200C58456ECB1
:1008E00004F01200C58056EC04F01200000131EF54
:0C08F00004F09E96C68A1200C69A120000
:020000040020DA
:08000000FFFFFFFFFFFFFFFF00
:020000040030CA
:0E000000000C1F1EFF8385FF0FC00FE00F4096
:00000001FF
