:04000000FEEF3DF0E2
:107BFC000F6A0E6A0D6A0C6A00012CEF3EF0000E43
:107C0C00076E000E066E15EF3EF0410E036EEE0E83
:107C1C00E82EFED7032EFCD700D0064A072A01C057
:107C2C0003F002C004F0D890033604360350065C0F
:107C3C000750800A056E0450800A0558D8A029EF19
:107C4C003EF02BEF3EF00BEF3EF01200929292942E
:107C5C009296929A9390939294929494949C9690D8
:107C6C00969293849290000E956E9684000E0B6EF5
:107C7C00000E0A6E000E096E000E026E070E016EEB
:107C8C0005EC3EF00A0E016E000E026E090E036E3C
:107C9C00000E046E56EC3EF042EF3EF000EF00F0AA
:107CAC0001C0D9FF02C0DAFFFF0EDE6EFF0EDD6EE3
:107CBC0003C0D9FF04C0DAFF020EDF6E03C0D9FF88
:107CCC0004C0DAFFDF50056E0F0E05168A5005183A
:107CDC00FE0B05188A6E03C0D9FF04C0DAFFDF5013
:107CEC00056ED89005320F0E051605468A500518FC
:107CFC00FD0B05188A6E03C0D9FF04C0DAFFDF50F4
:107D0C00056ED8900532D89005320F0E05168D50A1
:107D1C000518FE0B05188D6E03C0D9FF04C0DAFFE1
:107D2C00DF50056ED8900532D8900532D8900532C8
:107D3C000F0E051605468D500518FD0B05188D6E9A
:107D4C0001C0D9FF02C0DAFFDF50056E895005185B
:107D5C00FE0B0518896E01C0D9FF02C0DAFFDECF19
:107D6C0005F0DDCF06F0D8900630086E0530076EB2
:107D7C00074689500718FD0B0718896E01C0D9FFFB
:107D8C0002C0DAFFDECF05F0DDCF06F0D890063268
:107D9C000532D8900632053205460546895005183D
:107DAC00FB0B0518896E01C0D9FF02C0DAFFDECFCC
:107DBC0005F0DDCF06F0D89006320532D8900632A9
:107DCC000532D890063205320546054605468950DF
:107DDC000518F70B0518896E01C0D9FF02C0DAFF30
:107DEC00DECF05F0DDCF06F0040E076ED89006321C
:107DFC000532072EFCEF3EF0053A05468950051872
:107E0C00DF0B0518896E01C0D9FF02C0DAFFDECF87
:107E1C0005F0DDCF06F0050E076ED8900632053260
:107E2C00072E13EF3FF005468B500518FD0B051878
:107E3C008B6E01C0D9FF02C0DAFFDECF05F0DDCFBB
:107E4C0006F0060E076ED89006320532072E29EF83
:107E5C003FF0054605468B500518FB0B05188B6E3D
:107E6C0001C0D9FF02C0DAFFDECF05F0DDCF06F08E
:107E7C00070E076ED89006320532072E40EF3FF002
:107E8C00053A054605468B500518BF0B05188B6E39
:107E9C0001C0D9FF02C0DAFFDECF05F0DDCF06F05E
:107EAC0006C005F0066A8C500518FE0B05188C6E82
:107EBC0001C0D9FF02C0DAFFDECF05F0DDCF06F03E
:107ECC00090E076ED89006320532072E68EF3FF088
:107EDC0005468C500518FD0B05188C6E01C0D9FF9A
:107EEC0002C0DAFFDECF05F0DDCF06F00A0E076E1A
:107EFC00D89006320532072E7EEF3FF00546054638
:107F0C008C500518FB0B05188C6E01C0D9FF02C0F4
:107F1C00DAFFDECF05F0DDCF06F00B0E076ED89042
:107F2C0006320532072E95EF3FF00546054605460D
:107F3C008C500518F70B05188C6E01C0D9FF02C0C8
:107F4C00DAFFDECF05F0DDCF06F00C0E076ED89011
:107F5C0006320532072EADEF3FF0053A8C5005186E
:107F6C00EF0B05188C6E01C0D9FF02C0DAFFDECF13
:107F7C0005F0DDCF06F00D0E076ED89006320532F7
:107F8C00072EC3EF3FF0053A05468C500518DF0B62
:107F9C0005188C6E01C0D9FF02C0DAFFDECF05F0E8
:107FAC00DDCF06F00E0E076ED89006320532072E86
:107FBC00DAEF3FF0053A054605468C500518BF0B25
:107FCC0005188C6E01C0D9FF02C0DAFFDECF05F0B8
:107FDC00DDCF06F00F0E076ED89006320532072E55
:107FEC00F2EF3FF0053205328C5005187F0B051867
:047FFC008C6E120075
:020000040020DA
:08000000FFFFFFFFFFFFFFFF00
:020000040030CA
:0E000000004E1F10FF0081FF0FC00FE00F40E9
:00000001FF
